:1000000045C000009FC00000D8C0000011C1000022
:1000100087C1000058C0000056C0000054C0000056
:1000200052C0000050C000004EC000004CC0000094
:100030004AC0000048C0000046C0000044C00000A4
:1000400042C0000040C000003EC000003CC00000B4
:100050003AC0000038C0000036C0000034C00000C4
:1000600032C0000030C000002EC000002CC00000D4
:100070002AC0000028C0000026C0000024C00000E4
:1000800022C0000020C000001EC0000011241FBEBE
:10009000CFEFD0E1DEBFCDBF11E0A0E0B1E0E4E7FB
:1000A000F4E000E00BBF02C007900D92A234B1074C
:1000B000D9F721E0A2E4B1E001C01D92A236B20757
:1000C000E1F7B7D1D5C19CCF8093620084E088BBB3
:1000D0008FE99FE00197F1F700C0000018BA08957A
:1000E0008093620085E088BB8FE99FE00197F1F77C
:1000F00000C0000081E088BB0895CF93DF93EC013E
:1001000080EC90E0E1DF8881882329F02196E8DF08
:1001100089918111FCCFDF91CF910895CF93DF9327
:10012000EC0180E890E0D0DF8881882329F02196D7
:10013000D7DF89918111FCCF80E391E0DEDFDF9191
:10014000CF9108951F920F920FB60F9211240BB604
:100150000F922F933F934F935F936F937F938F9360
:100160009F93AF93BF93EF93FF9380E190E0ACDF59
:1001700080914001909141010197909341018093BA
:1001800040012FEF82E597E0215080409040E1F759
:1001900000C00000FF91EF91BF91AF919F918F91AF
:1001A0007F916F915F914F913F912F910F900BBE77
:1001B0000F900FBE0F901F9018951F920F920FB6C1
:1001C0000F9211240BB60F922F933F934F935F938F
:1001D0006F937F938F939F93AF93BF93EF93FF930F
:1001E00084E190E071DF809140019091410101969E
:1001F00090934101809340012FEF82E597E02150D9
:1002000080409040E1F700C00000FF91EF91BF9166
:10021000AF919F918F917F916F915F914F913F919E
:100220002F910F900BBE0F900FBE0F901F9018953F
:100230001F920F920FB60F9211240BB60F922F93AD
:100240003F934F935F936F937F938F939F93AF935E
:10025000BF93EF93FF938091400190914101FC0186
:10026000E05DFE4F20812033A1F5FC01EE0FFF1F62
:10027000EE5BFE4F20813181232B59F5FC01E05DBF
:10028000FE4F21E32083FC01EE0FFF1FE05CFE4FD9
:10029000208131812150310931832083FC01EE0F0F
:1002A000FF1FEE5BFE4F20813181215031093183E8
:1002B0002083880F991FFC01EC5BFE4F80819181A8
:1002C00001979183808380E291E028DF82E083B907
:1002D00005C080E191E022DF81E083B92FEF82E564
:1002E00097E0215080409040E1F700C000008FE08F
:1002F00090E09093410180934001FF91EF91BF9175
:10030000AF919F918F917F916F915F914F913F91AD
:100310002F910F900BBE0F900FBE0F901F9018954E
:100320001F920F920FB60F9211240BB60F922F93BC
:100330003F934F935F936F937F938F939F93AF936D
:10034000BF93EF93FF938091400190914101FC0195
:10035000E05DFE4F2081213309F044C0FC01EE0F27
:10036000FF1FEE5BFE4F208131812F3F3F4FD1F5C4
:10037000FC01E05DFE4F20E32083FC01EE0FFF1F38
:10038000E05CFE4F208131812F5F3F4F318320831E
:10039000FC01EE0FFF1FEE5BFE4F208131812F5FCE
:1003A0003F4F31832083880F991FFC01EC5BFE4F88
:1003B0008081918101969183808380E091E0AEDE1F
:1003C00082E083B98FEF92E527E081509040204092
:1003D000E1F700C000008FE090E09093410180932E
:1003E000400114C080E191E099DE81E083B94FEFD4
:1003F00082E597E0415080409040E1F700C0000066
:100400008FE090E09093410180934001FF91EF9144
:10041000BF91AF919F918F917F916F915F914F911C
:100420003F912F910F900BBE0F900FBE0F901F901A
:1004300018958FEF87BB8093610011BA82B982BB98
:1004400080E880936A008FE089BF8FB780688FBF94
:1004500088E390E039DE8DE090E036DE8EE090E0DB
:1004600033DE86E090E030DE80E291E057DEFFCFC1
:04047000F894FFCF2E
:1004740062652072657475726E6564000000000028
:100484006261642020202020202020000000000041
:10049400676F6F64202020202020200000000000CF
:1004A4003030303030303030303030303030300078
:0204B4000F0037
:00000001FF
